{
  "contractName": "CriptDPermission",
  "abi": [
    {
      "inputs": [],
      "payable": false,
      "stateMutability": "nonpayable",
      "type": "constructor"
    },
    {
      "anonymous": false,
      "inputs": [
        {
          "indexed": false,
          "internalType": "uint256",
          "name": "permId",
          "type": "uint256"
        },
        {
          "indexed": false,
          "internalType": "string",
          "name": "permDescription",
          "type": "string"
        },
        {
          "indexed": false,
          "internalType": "string",
          "name": "permAdress",
          "type": "string"
        },
        {
          "indexed": false,
          "internalType": "string",
          "name": "fileType",
          "type": "string"
        },
        {
          "indexed": false,
          "internalType": "string",
          "name": "fileHash",
          "type": "string"
        },
        {
          "indexed": false,
          "internalType": "string",
          "name": "sectKey",
          "type": "string"
        },
        {
          "indexed": false,
          "internalType": "uint256",
          "name": "permTimeStart",
          "type": "uint256"
        },
        {
          "indexed": false,
          "internalType": "uint256",
          "name": "permTimeEnd",
          "type": "uint256"
        },
        {
          "indexed": false,
          "internalType": "uint256",
          "name": "uploadTime",
          "type": "uint256"
        },
        {
          "indexed": false,
          "internalType": "address payable",
          "name": "uploader",
          "type": "address"
        }
      ],
      "name": "PermUploaded",
      "type": "event"
    },
    {
      "constant": true,
      "inputs": [],
      "name": "name",
      "outputs": [
        {
          "internalType": "string",
          "name": "",
          "type": "string"
        }
      ],
      "payable": false,
      "stateMutability": "view",
      "type": "function"
    },
    {
      "constant": true,
      "inputs": [],
      "name": "permCount",
      "outputs": [
        {
          "internalType": "uint256",
          "name": "",
          "type": "uint256"
        }
      ],
      "payable": false,
      "stateMutability": "view",
      "type": "function"
    },
    {
      "constant": true,
      "inputs": [
        {
          "internalType": "uint256",
          "name": "",
          "type": "uint256"
        }
      ],
      "name": "perms",
      "outputs": [
        {
          "internalType": "uint256",
          "name": "permId",
          "type": "uint256"
        },
        {
          "internalType": "string",
          "name": "permDescription",
          "type": "string"
        },
        {
          "internalType": "string",
          "name": "permAdress",
          "type": "string"
        },
        {
          "internalType": "string",
          "name": "fileType",
          "type": "string"
        },
        {
          "internalType": "string",
          "name": "fileHash",
          "type": "string"
        },
        {
          "internalType": "string",
          "name": "sectKey",
          "type": "string"
        },
        {
          "internalType": "uint256",
          "name": "permTimeStart",
          "type": "uint256"
        },
        {
          "internalType": "uint256",
          "name": "permTimeEnd",
          "type": "uint256"
        },
        {
          "internalType": "uint256",
          "name": "uploadTime",
          "type": "uint256"
        },
        {
          "internalType": "address payable",
          "name": "uploader",
          "type": "address"
        }
      ],
      "payable": false,
      "stateMutability": "view",
      "type": "function"
    },
    {
      "constant": false,
      "inputs": [
        {
          "internalType": "string",
          "name": "_permDescription",
          "type": "string"
        },
        {
          "internalType": "string",
          "name": "_permAdress",
          "type": "string"
        },
        {
          "internalType": "string",
          "name": "_fileType",
          "type": "string"
        },
        {
          "internalType": "string",
          "name": "_fileHash",
          "type": "string"
        },
        {
          "internalType": "string",
          "name": "_sectKey",
          "type": "string"
        },
        {
          "internalType": "uint256",
          "name": "_permTimeStart",
          "type": "uint256"
        },
        {
          "internalType": "uint256",
          "name": "_permTimeEnd",
          "type": "uint256"
        }
      ],
      "name": "uploadPerm",
      "outputs": [],
      "payable": false,
      "stateMutability": "nonpayable",
      "type": "function"
    }
  ],
  "bytecode": "0x60806040526040518060400160405280601081526020017f4372697074445065726d697373696f6e000000000000000000000000000000008152506000908051906020019061004f929190610067565b50600060015534801561006157600080fd5b5061010c565b828054600181600116156101000203166002900490600052602060002090601f016020900481019282601f106100a857805160ff19168380011785556100d6565b828001600101855582156100d6579182015b828111156100d55782518255916020019190600101906100ba565b5b5090506100e391906100e7565b5090565b61010991905b808211156101055760008160009055506001016100ed565b5090565b90565b611080806200011c6000396000f3fe608060405234801561001057600080fd5b506004361061004c5760003560e01c806306fdde0314610051578063149f607c146100d4578063645f977b1461037a578063e3a4c21d14610398575b600080fd5b6100596106c3565b6040518080602001828103825283818151815260200191508051906020019080838360005b8381101561009957808201518184015260208101905061007e565b50505050905090810190601f1680156100c65780820380516001836020036101000a031916815260200191505b509250505060405180910390f35b610100600480360360208110156100ea57600080fd5b8101908080359060200190929190505050610761565b604051808b815260200180602001806020018060200180602001806020018a81526020018981526020018881526020018773ffffffffffffffffffffffffffffffffffffffff1673ffffffffffffffffffffffffffffffffffffffff16815260200186810386528f818151815260200191508051906020019080838360005b8381101561019a57808201518184015260208101905061017f565b50505050905090810190601f1680156101c75780820380516001836020036101000a031916815260200191505b5086810385528e818151815260200191508051906020019080838360005b838110156102005780820151818401526020810190506101e5565b50505050905090810190601f16801561022d5780820380516001836020036101000a031916815260200191505b5086810384528d818151815260200191508051906020019080838360005b8381101561026657808201518184015260208101905061024b565b50505050905090810190601f1680156102935780820380516001836020036101000a031916815260200191505b5086810383528c818151815260200191508051906020019080838360005b838110156102cc5780820151818401526020810190506102b1565b50505050905090810190601f1680156102f95780820380516001836020036101000a031916815260200191505b5086810382528b818151815260200191508051906020019080838360005b83811015610332578082015181840152602081019050610317565b50505050905090810190601f16801561035f5780820380516001836020036101000a031916815260200191505b509f5050505050505050505050505050505060405180910390f35b610382610acd565b6040518082815260200191505060405180910390f35b6106c1600480360360e08110156103ae57600080fd5b81019080803590602001906401000000008111156103cb57600080fd5b8201836020820111156103dd57600080fd5b803590602001918460018302840111640100000000831117156103ff57600080fd5b91908080601f016020809104026020016040519081016040528093929190818152602001838380828437600081840152601f19601f8201169050808301925050505050505091929192908035906020019064010000000081111561046257600080fd5b82018360208201111561047457600080fd5b8035906020019184600183028401116401000000008311171561049657600080fd5b91908080601f016020809104026020016040519081016040528093929190818152602001838380828437600081840152601f19601f820116905080830192505050505050509192919290803590602001906401000000008111156104f957600080fd5b82018360208201111561050b57600080fd5b8035906020019184600183028401116401000000008311171561052d57600080fd5b91908080601f016020809104026020016040519081016040528093929190818152602001838380828437600081840152601f19601f8201169050808301925050505050505091929192908035906020019064010000000081111561059057600080fd5b8201836020820111156105a257600080fd5b803590602001918460018302840111640100000000831117156105c457600080fd5b91908080601f016020809104026020016040519081016040528093929190818152602001838380828437600081840152601f19601f8201169050808301925050505050505091929192908035906020019064010000000081111561062757600080fd5b82018360208201111561063957600080fd5b8035906020019184600183028401116401000000008311171561065b57600080fd5b91908080601f016020809104026020016040519081016040528093929190818152602001838380828437600081840152601f19601f8201169050808301925050505050505091929192908035906020019092919080359060200190929190505050610ad3565b005b60008054600181600116156101000203166002900480601f0160208091040260200160405190810160405280929190818152602001828054600181600116156101000203166002900480156107595780601f1061072e57610100808354040283529160200191610759565b820191906000526020600020905b81548152906001019060200180831161073c57829003601f168201915b505050505081565b6002602052806000526040600020600091509050806000015490806001018054600181600116156101000203166002900480601f0160208091040260200160405190810160405280929190818152602001828054600181600116156101000203166002900480156108135780601f106107e857610100808354040283529160200191610813565b820191906000526020600020905b8154815290600101906020018083116107f657829003601f168201915b505050505090806002018054600181600116156101000203166002900480601f0160208091040260200160405190810160405280929190818152602001828054600181600116156101000203166002900480156108b15780601f10610886576101008083540402835291602001916108b1565b820191906000526020600020905b81548152906001019060200180831161089457829003601f168201915b505050505090806003018054600181600116156101000203166002900480601f01602080910402602001604051908101604052809291908181526020018280546001816001161561010002031660029004801561094f5780601f106109245761010080835404028352916020019161094f565b820191906000526020600020905b81548152906001019060200180831161093257829003601f168201915b505050505090806004018054600181600116156101000203166002900480601f0160208091040260200160405190810160405280929190818152602001828054600181600116156101000203166002900480156109ed5780601f106109c2576101008083540402835291602001916109ed565b820191906000526020600020905b8154815290600101906020018083116109d057829003601f168201915b505050505090806005018054600181600116156101000203166002900480601f016020809104026020016040519081016040528092919081815260200182805460018160011615610100020316600290048015610a8b5780601f10610a6057610100808354040283529160200191610a8b565b820191906000526020600020905b815481529060010190602001808311610a6e57829003601f168201915b5050505050908060060154908060070154908060080154908060090160009054906101000a900473ffffffffffffffffffffffffffffffffffffffff1690508a565b60015481565b6000875111610ae157600080fd5b6000865111610aef57600080fd5b6000855111610afd57600080fd5b6000835111610b0b57600080fd5b600073ffffffffffffffffffffffffffffffffffffffff163373ffffffffffffffffffffffffffffffffffffffff161415610b4557600080fd5b6000845111610b5357600080fd5b60008211610b6057600080fd5b60008111610b6d57600080fd5b60016000815480929190600101919050555060405180610140016040528060015481526020018881526020018781526020018681526020018581526020018481526020018381526020018281526020014281526020013373ffffffffffffffffffffffffffffffffffffffff16815250600260006001548152602001908152602001600020600082015181600001556020820151816001019080519060200190610c18929190610fa6565b506040820151816002019080519060200190610c35929190610fa6565b506060820151816003019080519060200190610c52929190610fa6565b506080820151816004019080519060200190610c6f929190610fa6565b5060a0820151816005019080519060200190610c8c929190610fa6565b5060c0820151816006015560e0820151816007015561010082015181600801556101208201518160090160006101000a81548173ffffffffffffffffffffffffffffffffffffffff021916908373ffffffffffffffffffffffffffffffffffffffff1602179055509050507fb2dbc6d213a544e140ac7c197aac2693ac97f1fe117c57c1b89bc0b7fd46f38a600154888888888888884233604051808b815260200180602001806020018060200180602001806020018a81526020018981526020018881526020018773ffffffffffffffffffffffffffffffffffffffff1673ffffffffffffffffffffffffffffffffffffffff16815260200186810386528f818151815260200191508051906020019080838360005b83811015610dbe578082015181840152602081019050610da3565b50505050905090810190601f168015610deb5780820380516001836020036101000a031916815260200191505b5086810385528e818151815260200191508051906020019080838360005b83811015610e24578082015181840152602081019050610e09565b50505050905090810190601f168015610e515780820380516001836020036101000a031916815260200191505b5086810384528d818151815260200191508051906020019080838360005b83811015610e8a578082015181840152602081019050610e6f565b50505050905090810190601f168015610eb75780820380516001836020036101000a031916815260200191505b5086810383528c818151815260200191508051906020019080838360005b83811015610ef0578082015181840152602081019050610ed5565b50505050905090810190601f168015610f1d5780820380516001836020036101000a031916815260200191505b5086810382528b818151815260200191508051906020019080838360005b83811015610f56578082015181840152602081019050610f3b565b50505050905090810190601f168015610f835780820380516001836020036101000a031916815260200191505b509f5050505050505050505050505050505060405180910390a150505050505050565b828054600181600116156101000203166002900490600052602060002090601f016020900481019282601f10610fe757805160ff1916838001178555611015565b82800160010185558215611015579182015b82811115611014578251825591602001919060010190610ff9565b5b5090506110229190611026565b5090565b61104891905b8082111561104457600081600090555060010161102c565b5090565b9056fea265627a7a72315820472c23af15c289839667e7deee5eae7d385e3588e0bbe911fb1d13494fa2248964736f6c63430005100032",
  "source": "pragma solidity ^0.5.0;\r\n\r\ncontract CriptDPermission {\r\n  //Nome\r\n  string public  name = 'CriptDPermission';\r\n\r\n  //Numero de arquivos\r\n  uint public permCount = 0;\r\n\r\n  //Map do ID do arquivo (chave:valor) \r\n  mapping(uint => Perm) public perms;\r\n\r\n  //Struct\r\n  struct Perm{\r\n    uint permId;\r\n    string permDescription;\r\n    string permAdress;\r\n    string fileType;\r\n    string fileHash;\r\n    string sectKey;\r\n    uint permTimeStart;\r\n    uint permTimeEnd;\r\n    uint uploadTime;\r\n    address payable uploader;\r\n  }\r\n\r\n  //Evento\r\n  event PermUploaded(\r\n    uint permId,\r\n    string permDescription,\r\n    string permAdress,\r\n    string fileType,\r\n    string fileHash,\r\n    string sectKey,\r\n    uint permTimeStart,\r\n    uint permTimeEnd,\r\n    uint uploadTime,\r\n    address payable uploader\r\n  );\r\n\r\n  //Construtor vazio\r\n  constructor() public {\r\n  }\r\n\r\n  //Função de upload da permissao\r\n  function uploadPerm(string memory _permDescription, string memory _permAdress, string memory _fileType, string memory _fileHash, string memory _sectKey,  uint _permTimeStart, uint _permTimeEnd) public{\r\n    \r\n    //Verifica se as informações existem\r\n    require(bytes(_permDescription).length > 0);\r\n    require(bytes(_permAdress).length > 0);\r\n    require(bytes(_fileType).length > 0);\r\n    require(bytes(_sectKey).length > 0);\r\n    require(msg.sender!=address(0));\r\n    require(bytes(_fileHash).length > 0);\r\n    require(_permTimeStart>0);\r\n    require(_permTimeEnd>0);\r\n\r\n    //Incrementa o ID da pem (sequence)\r\n    permCount ++;\r\n\r\n    //Adiciona o arquivo ao contrato\r\n    perms[permCount] = Perm(permCount, _permDescription, _permAdress, _fileType, _fileHash, _sectKey, _permTimeStart, _permTimeEnd, now, msg.sender);\r\n   \r\n    //Aciona o evento\r\n    emit PermUploaded(permCount, _permDescription, _permAdress, _fileType, _fileHash, _sectKey, _permTimeStart, _permTimeEnd, now, msg.sender);\r\n\r\n  }\r\n}",
  "sourcePath": "M:\\BlockChain\\dstoragestart\\criptdstorage2\\src\\contracts\\CriptDPermission.sol",
  "compiler": {
    "name": "solc",
    "version": "0.5.16+commit.9c3226ce.Emscripten.clang"
  },
  "schemaVersion": "3.0.23",
  "updatedAt": "2022-07-10T17:04:15.025Z",
  "networkType": "ethereum",
  "devdoc": {
    "methods": {}
  },
  "userdoc": {
    "methods": {}
  }
}