{
  "contractName": "CriptDPermission",
  "abi": [
    {
      "inputs": [],
      "payable": false,
      "stateMutability": "nonpayable",
      "type": "constructor"
    },
    {
      "anonymous": false,
      "inputs": [
        {
          "indexed": false,
          "internalType": "uint256",
          "name": "permId",
          "type": "uint256"
        },
        {
          "indexed": false,
          "internalType": "string",
          "name": "permAdress",
          "type": "string"
        },
        {
          "indexed": false,
          "internalType": "string",
          "name": "fileId",
          "type": "string"
        },
        {
          "indexed": false,
          "internalType": "string",
          "name": "userKey",
          "type": "string"
        },
        {
          "indexed": false,
          "internalType": "string",
          "name": "salt",
          "type": "string"
        },
        {
          "indexed": false,
          "internalType": "uint256",
          "name": "permTimeStart",
          "type": "uint256"
        },
        {
          "indexed": false,
          "internalType": "uint256",
          "name": "permTimeEnd",
          "type": "uint256"
        },
        {
          "indexed": false,
          "internalType": "uint256",
          "name": "uploadTime",
          "type": "uint256"
        },
        {
          "indexed": false,
          "internalType": "address payable",
          "name": "uploader",
          "type": "address"
        }
      ],
      "name": "PermUploaded",
      "type": "event"
    },
    {
      "constant": true,
      "inputs": [],
      "name": "name",
      "outputs": [
        {
          "internalType": "string",
          "name": "",
          "type": "string"
        }
      ],
      "payable": false,
      "stateMutability": "view",
      "type": "function"
    },
    {
      "constant": true,
      "inputs": [],
      "name": "permCount",
      "outputs": [
        {
          "internalType": "uint256",
          "name": "",
          "type": "uint256"
        }
      ],
      "payable": false,
      "stateMutability": "view",
      "type": "function"
    },
    {
      "constant": true,
      "inputs": [
        {
          "internalType": "uint256",
          "name": "",
          "type": "uint256"
        }
      ],
      "name": "perms",
      "outputs": [
        {
          "internalType": "uint256",
          "name": "permId",
          "type": "uint256"
        },
        {
          "internalType": "string",
          "name": "permAdress",
          "type": "string"
        },
        {
          "internalType": "string",
          "name": "fileId",
          "type": "string"
        },
        {
          "internalType": "string",
          "name": "userKey",
          "type": "string"
        },
        {
          "internalType": "string",
          "name": "salt",
          "type": "string"
        },
        {
          "internalType": "uint256",
          "name": "permTimeStart",
          "type": "uint256"
        },
        {
          "internalType": "uint256",
          "name": "permTimeEnd",
          "type": "uint256"
        },
        {
          "internalType": "uint256",
          "name": "uploadTime",
          "type": "uint256"
        },
        {
          "internalType": "address payable",
          "name": "uploader",
          "type": "address"
        }
      ],
      "payable": false,
      "stateMutability": "view",
      "type": "function"
    },
    {
      "constant": false,
      "inputs": [
        {
          "internalType": "string",
          "name": "_permAdress",
          "type": "string"
        },
        {
          "internalType": "string",
          "name": "_fileId",
          "type": "string"
        },
        {
          "internalType": "string",
          "name": "_userKey",
          "type": "string"
        },
        {
          "internalType": "string",
          "name": "_salt",
          "type": "string"
        },
        {
          "internalType": "uint256",
          "name": "_permTimeStart",
          "type": "uint256"
        },
        {
          "internalType": "uint256",
          "name": "_permTimeEnd",
          "type": "uint256"
        }
      ],
      "name": "uploadPerm",
      "outputs": [],
      "payable": false,
      "stateMutability": "nonpayable",
      "type": "function"
    }
  ],
  "bytecode": "0x60806040526040518060400160405280601081526020017f4372697074445065726d697373696f6e000000000000000000000000000000008152506000908051906020019061004f929190610067565b50600060015534801561006157600080fd5b5061010c565b828054600181600116156101000203166002900490600052602060002090601f016020900481019282601f106100a857805160ff19168380011785556100d6565b828001600101855582156100d6579182015b828111156100d55782518255916020019190600101906100ba565b5b5090506100e391906100e7565b5090565b61010991905b808211156101055760008160009055506001016100ed565b5090565b90565b610e3f8061011b6000396000f3fe608060405234801561001057600080fd5b506004361061004c5760003560e01c806306fdde0314610051578063149f607c146100d45780633285976e1461030e578063645f977b146105a2575b600080fd5b6100596105c0565b6040518080602001828103825283818151815260200191508051906020019080838360005b8381101561009957808201518184015260208101905061007e565b50505050905090810190601f1680156100c65780820380516001836020036101000a031916815260200191505b509250505060405180910390f35b610100600480360360208110156100ea57600080fd5b810190808035906020019092919050505061065e565b604051808a8152602001806020018060200180602001806020018981526020018881526020018781526020018673ffffffffffffffffffffffffffffffffffffffff1673ffffffffffffffffffffffffffffffffffffffff16815260200185810385528d818151815260200191508051906020019080838360005b8381101561019657808201518184015260208101905061017b565b50505050905090810190601f1680156101c35780820380516001836020036101000a031916815260200191505b5085810384528c818151815260200191508051906020019080838360005b838110156101fc5780820151818401526020810190506101e1565b50505050905090810190601f1680156102295780820380516001836020036101000a031916815260200191505b5085810383528b818151815260200191508051906020019080838360005b83811015610262578082015181840152602081019050610247565b50505050905090810190601f16801561028f5780820380516001836020036101000a031916815260200191505b5085810382528a818151815260200191508051906020019080838360005b838110156102c85780820151818401526020810190506102ad565b50505050905090810190601f1680156102f55780820380516001836020036101000a031916815260200191505b509d505050505050505050505050505060405180910390f35b6105a0600480360360c081101561032457600080fd5b810190808035906020019064010000000081111561034157600080fd5b82018360208201111561035357600080fd5b8035906020019184600183028401116401000000008311171561037557600080fd5b91908080601f016020809104026020016040519081016040528093929190818152602001838380828437600081840152601f19601f820116905080830192505050505050509192919290803590602001906401000000008111156103d857600080fd5b8201836020820111156103ea57600080fd5b8035906020019184600183028401116401000000008311171561040c57600080fd5b91908080601f016020809104026020016040519081016040528093929190818152602001838380828437600081840152601f19601f8201169050808301925050505050505091929192908035906020019064010000000081111561046f57600080fd5b82018360208201111561048157600080fd5b803590602001918460018302840111640100000000831117156104a357600080fd5b91908080601f016020809104026020016040519081016040528093929190818152602001838380828437600081840152601f19601f8201169050808301925050505050505091929192908035906020019064010000000081111561050657600080fd5b82018360208201111561051857600080fd5b8035906020019184600183028401116401000000008311171561053a57600080fd5b91908080601f016020809104026020016040519081016040528093929190818152602001838380828437600081840152601f19601f820116905080830192505050505050509192919290803590602001909291908035906020019092919050505061092c565b005b6105aa610d5f565b6040518082815260200191505060405180910390f35b60008054600181600116156101000203166002900480601f0160208091040260200160405190810160405280929190818152602001828054600181600116156101000203166002900480156106565780601f1061062b57610100808354040283529160200191610656565b820191906000526020600020905b81548152906001019060200180831161063957829003601f168201915b505050505081565b6002602052806000526040600020600091509050806000015490806001018054600181600116156101000203166002900480601f0160208091040260200160405190810160405280929190818152602001828054600181600116156101000203166002900480156107105780601f106106e557610100808354040283529160200191610710565b820191906000526020600020905b8154815290600101906020018083116106f357829003601f168201915b505050505090806002018054600181600116156101000203166002900480601f0160208091040260200160405190810160405280929190818152602001828054600181600116156101000203166002900480156107ae5780601f10610783576101008083540402835291602001916107ae565b820191906000526020600020905b81548152906001019060200180831161079157829003601f168201915b505050505090806003018054600181600116156101000203166002900480601f01602080910402602001604051908101604052809291908181526020018280546001816001161561010002031660029004801561084c5780601f106108215761010080835404028352916020019161084c565b820191906000526020600020905b81548152906001019060200180831161082f57829003601f168201915b505050505090806004018054600181600116156101000203166002900480601f0160208091040260200160405190810160405280929190818152602001828054600181600116156101000203166002900480156108ea5780601f106108bf576101008083540402835291602001916108ea565b820191906000526020600020905b8154815290600101906020018083116108cd57829003601f168201915b5050505050908060050154908060060154908060070154908060080160009054906101000a900473ffffffffffffffffffffffffffffffffffffffff16905089565b600086511161093a57600080fd5b600084511161094857600080fd5b600083511161095657600080fd5b600073ffffffffffffffffffffffffffffffffffffffff163373ffffffffffffffffffffffffffffffffffffffff16141561099057600080fd5b600085511161099e57600080fd5b600082116109ab57600080fd5b600081116109b857600080fd5b60016000815480929190600101919050555060405180610120016040528060015481526020018781526020018681526020018581526020018481526020018381526020018281526020014281526020013373ffffffffffffffffffffffffffffffffffffffff16815250600260006001548152602001908152602001600020600082015181600001556020820151816001019080519060200190610a5d929190610d65565b506040820151816002019080519060200190610a7a929190610d65565b506060820151816003019080519060200190610a97929190610d65565b506080820151816004019080519060200190610ab4929190610d65565b5060a0820151816005015560c0820151816006015560e082015181600701556101008201518160080160006101000a81548173ffffffffffffffffffffffffffffffffffffffff021916908373ffffffffffffffffffffffffffffffffffffffff1602179055509050507fcdd71cd0b22ae79a2adf34ec972e1e9cb9ade4d71d6f267342ba65630e680d4b6001548787878787874233604051808a8152602001806020018060200180602001806020018981526020018881526020018781526020018673ffffffffffffffffffffffffffffffffffffffff1673ffffffffffffffffffffffffffffffffffffffff16815260200185810385528d818151815260200191508051906020019080838360005b83811015610be0578082015181840152602081019050610bc5565b50505050905090810190601f168015610c0d5780820380516001836020036101000a031916815260200191505b5085810384528c818151815260200191508051906020019080838360005b83811015610c46578082015181840152602081019050610c2b565b50505050905090810190601f168015610c735780820380516001836020036101000a031916815260200191505b5085810383528b818151815260200191508051906020019080838360005b83811015610cac578082015181840152602081019050610c91565b50505050905090810190601f168015610cd95780820380516001836020036101000a031916815260200191505b5085810382528a818151815260200191508051906020019080838360005b83811015610d12578082015181840152602081019050610cf7565b50505050905090810190601f168015610d3f5780820380516001836020036101000a031916815260200191505b509d505050505050505050505050505060405180910390a1505050505050565b60015481565b828054600181600116156101000203166002900490600052602060002090601f016020900481019282601f10610da657805160ff1916838001178555610dd4565b82800160010185558215610dd4579182015b82811115610dd3578251825591602001919060010190610db8565b5b509050610de19190610de5565b5090565b610e0791905b80821115610e03576000816000905550600101610deb565b5090565b9056fea265627a7a7231582049f01e133f815161c2445351479d36ea655ab26af2668f84c7d6c746df2ea9f264736f6c63430005100032",
  "source": "pragma solidity ^0.5.0;\r\n\r\ncontract CriptDPermission {\r\n  //Nome\r\n  string public  name = 'CriptDPermission';\r\n\r\n  //Numero de arquivos\r\n  uint public permCount = 0;\r\n\r\n  //Map do ID do arquivo (chave:valor) \r\n  mapping(uint => Perm) public perms;\r\n\r\n  //Struct\r\n  struct Perm{\r\n    uint permId;\r\n    string permAdress;\r\n    string fileId;\r\n    string userKey;\r\n    string salt;\r\n    uint permTimeStart;\r\n    uint permTimeEnd;\r\n    uint uploadTime;\r\n    address payable uploader;\r\n  }\r\n\r\n  //Evento\r\n  event PermUploaded(\r\n    uint permId,\r\n    string permAdress,\r\n    string fileId,\r\n    string userKey,\r\n    string salt,\r\n    uint permTimeStart,\r\n    uint permTimeEnd,\r\n    uint uploadTime,\r\n    address payable uploader\r\n  );\r\n\r\n  //Construtor vazio\r\n  constructor() public {\r\n  }\r\n\r\n  //Função de upload da permissao\r\n  function uploadPerm(string memory _permAdress, string memory _fileId, string memory _userKey, string memory _salt,  uint _permTimeStart, uint _permTimeEnd) public{\r\n    \r\n    //Verifica se as informações existem\r\n    require(bytes(_permAdress).length > 0);\r\n    require(bytes(_userKey).length > 0);\r\n    require(bytes(_salt).length > 0);\r\n    require(msg.sender!=address(0));\r\n    require(bytes(_fileId).length > 0);\r\n    require(_permTimeStart>0);\r\n    require(_permTimeEnd>0);\r\n\r\n    //Incrementa o ID da pem (sequence)\r\n    permCount ++;\r\n\r\n    //Adiciona o arquivo ao contrato\r\n    perms[permCount] = Perm(permCount, _permAdress, _fileId, _userKey, _salt, _permTimeStart, _permTimeEnd, now, msg.sender);\r\n   \r\n    //Aciona o evento\r\n    emit PermUploaded(permCount, _permAdress, _fileId, _userKey, _salt, _permTimeStart, _permTimeEnd, now, msg.sender);\r\n\r\n  }\r\n}",
  "sourcePath": "M:\\BlockChain\\dstoragestart\\criptdstorage\\src\\contracts\\CriptDPermission.sol",
  "compiler": {
    "name": "solc",
    "version": "0.5.16+commit.9c3226ce.Emscripten.clang"
  },
  "schemaVersion": "3.0.23",
  "updatedAt": "2022-05-14T20:19:42.478Z",
  "networkType": "ethereum",
  "devdoc": {
    "methods": {}
  },
  "userdoc": {
    "methods": {}
  }
}